:020000040800F2
:10000000B8090020AD030008D90F0008DB0F000875
:10001000DF0F0008E30F0008E70F000800000000F2
:10002000000000000000000000000000EB0F0008CE
:10003000ED0F000800000000EF0F0008F10F0008AE
:10004000C7030008C7030008C7030008C703000868
:10005000C7030008C7030008290B0008C7030008EE
:10006000F70A0008C7030008C7030008C703000811
:10007000C7030008C7030008C7030008C703000838
:10008000C7030008C7030008C7030008C703000828
:10009000C7030008C7030008C7030008C703000818
:1000A000C7030008C7030008C7030008C703000808
:1000B000C7030008990C0008C10C0008C70300081A
:1000C000C7030008C7030008C7030008C7030008E8
:1000D000C7030008C7030008C7030008C7030008D8
:1000E0005B0B0008C7030008C7030008C70300082C
:1000F000C7030008C7030008C7030008C7030008B8
:10010000C7030008C7030008C7030008C7030008A7
:10011000C7030008C7030008C7030008C703000897
:10012000C7030008C7030008C7030008C703000887
:1001300000F002F800F03AF80AA090E8000C8244BF
:100140008344AAF10107DA4501D100F02FF8AFF29C
:10015000090EBAE80F0013F0010F18BFFB1A43F0A5
:10016000010318471015000030150000103A24BF95
:1001700078C878C1FAD8520724BF30C830C144BF0C
:1001800004680C607047000000230024002500264E
:10019000103A28BF78C1FBD8520728BF30C148BFEA
:1001A0000B6070471FB51FBD10B510BD00F033FFC9
:1001B0001146FFF7F7FF00F0DFFE00F051FF03B438
:1001C000FFF7F2FF03BC00F055FF00000CB5002064
:1001D000019000906C48006840F480306A490860E3
:1001E00000BF6948006800F4003000900198401C8E
:1001F0000190009818B90198B0F5A06FF1D162484C
:10020000006800F4003010B10120009001E00020EF
:1002100000900098012843D15C48006840F010002D
:100220005A4908600846006820F003000860084644
:10023000006840F002000860534840685249486036
:100240000846406848600846406840F4806048605E
:100250000846406820F47C1048600846406840F436
:10026000E81048600846006840F08070086000BFF1
:100270004548006800F000700028F9D04248406806
:1002800020F00300404948600846406840F0020002
:10029000486000BF3C48406800F00C000828F9D1D5
:1002A0000CBD10B5FFF792FF10BD10B536480068C1
:1002B00040F001003449086008464068344908406D
:1002C0003149486008460068324908402E490860B4
:1002D0000846006820F4802008600846406820F442
:1002E000FE0048604FF41F008860FFF7DAFF4FF010
:1002F00000602949086010BD10B5002100200022CF
:10030000214B5B6803F00C0121B1042906D00829B8
:1003100028D107E0214B224C236027E01F4B204CC3
:10032000236023E0184B5B6803F47010164B5B6886
:1003300003F48032022303EB904022B9194B43436C
:10034000174C23600DE0104B5B6803F4003323B1BE
:10035000144B4343124C236003E0104B4343104CB7
:10036000236003E00D4B0E4C236000BF00BF064B23
:100370005B68C3F303130C4CE15C094B1B68CB4077
:10038000074C236010BD0000001002400020024016
:100390000000FFF8FFFFF6FE08ED00E000127A0013
:1003A0000000002000093D000400002009488047AB
:1003B00009480047FEE7FEE7FEE7FEE7FEE7FEE747
:1003C000FEE7FEE7FEE7FEE704480549054A064B5F
:1003D00070470000AB02000831010008B80300209C
:1003E000B8090020B8050020B8050020002100E071
:1003F000491C8142FCD37047FB4908807047FA4989
:10040000891C0880704700B50120FFF7F5FF112017
:10041000FFF7F2FF3A20FFF7EFFF5520FFF7EFFF5E
:100420002920FFF7E9FF3620FFF7E6FFC820FFF796
:10043000E6FF00BD00B50120FFF7DEFFEB48FFF748
:10044000D5FF1120FFF7D8FFE848FFF7CFFF3A208C
:10045000FFF7D2FF0520FFF7D2FF2920FFF7CCFFDF
:100460003620FFF7C9FF8020FFF7C9FF00BDE04835
:10047000806920F00800DE4988610846806940F004
:1004800008008861DB48006820F47000D9490860E2
:100490000846006840F4401008602020D54910311B
:1004A0000860D348806920F04000D149886108463F
:1004B000806940F040008861CF48006820F47000F7
:1004C000CD4908600846006840F4401008602020CC
:1004D000C94910310860704707210020C44A52689A
:1004E000C64B1A40C24B5A601A461268C44B1A4097
:1004F000BF4B1A601A46126842F480321A6000BF7D
:10050000BB4A1268520C002AFAD04FF41052B84B72
:100510005A601A46526842EA81425A601A46526844
:1005200042F480325A60B74A126842F03202B54B48
:100530001A60AF4A126842F08072AD4B1A6000BF79
:10054000AB4A1268520E002AFAD0A94A526842F009
:100550000202A74B5A6005E0A54A5268C2F3870021
:1005600000F003000228F7D1704710B502460020C2
:1005700015E0012A02D10B5CA34C2380022A02D190
:100580000B5CA14C238000BF9F4B1B1F1B88DB1102
:10059000002BF9D0FF2800D104E0431CD8B20B5C3B
:1005A000002BE6D100BF10BD014601F00702120288
:1005B000964B18684FF6FF031840954B18431043AD
:1005C000924B186070478A48806940F0040088495F
:1005D00088619048006820F00F008E490860084646
:1005E000006840F0080008608A480C30006820F07D
:1005F0000F0088490C3108607D48806940F0010097
:100600007B4988618448806820F00F0082498860B7
:100610000846806888608148006840F001007F4992
:1006200008607E480830006840F001007B490831CE
:10063000086095217A4801707A48006820F04000EF
:100640004FF0E021C1F800010846D0F8000140F069
:100650004000C1F8000170476548806940F0100013
:10066000634988617048406820F470406E49486072
:100670000846406840F4004048600846C06840F4BE
:100680000060C8600846406820F470604860084612
:10069000406840F4006048605548806940F00100BF
:1006A000534988615C48006920F470415A480161EF
:1006B000006940F40051584801615848006840F40E
:1006C00000605649086055480C30006840F40060EE
:1006D00052490C310860652151482230017051485F
:1006E000001D006820F480704FF0E021C1F8040183
:1006F0000846D0F8040140F48070C1F80401704746
:100700003B48806940F04000394988613A480068B8
:1007100020F47060384908600846006840F40060C2
:10072000086035480C30006840F0040032490C3154
:1007300008602F48806940F001002D4988613648E3
:10074000806820F47060344988600846806840F40E
:10075000806088603148006840F004002F490860DC
:100760002E480C30006840F004002C490C31086021
:1007700065212B48801C01702A48006820F4807095
:100780004FF0E021C1F800010846D0F8000140F424
:100790008070C1F80001704710B503460C462A204E
:1007A000FFF72AFE1812FFF72AFED8B2FFF727FE3E
:1007B0000120FFF724FE3F20FFF721FE2B20FFF74B
:1007C0001BFE2012FFF71BFEE0B2FFF718FE012010
:1007D000FFF715FEDF20FFF712FE2C20FFF70CFEBF
:1007E0001046FFF70CFE10BDFE07006C40420F00E4
:1007F00000100240000C0140001801400000FFF80A
:10080000FFFFF6FE00200240043801400CED00E03E
:100810000000FA050008014000000140000401400A
:1008200006E400E000E100E00010014000B5FE48F1
:10083000406940F48070FC4948610846806940F096
:10084000080088610846806940F0200088610846F9
:10085000806940F0400088610846806940F48070FB
:100860008861F248006820F00F00F04908600846EF
:10087000006840F003000860ED480068ED4908405A
:10088000EB49086008460068EB490843E8490860FE
:10089000081F006800F0FF20091F08600846006874
:1008A00040F0BB100860E54800680020E34908609C
:1008B0000846006840F0BB300860081F006820F060
:1008C0007040091F08600846006840F0304008602A
:1008D000DB48406820F47020D949486008464068E9
:1008E00040F4302048600846006820F00F0008609F
:1008F0000846006840F00B00086000204FF02041DF
:100900008861C861CF4908604FF02040806940F499
:1009100080504FF0204188610846806940F4804053
:1009200088610846806940F0100088610846C06907
:10093000C8610846C06940F00100C8610846D0F8A7
:100940001C0140F47060C1F81C01BE480068C1F889
:100950001C01BC480068C1F81C010846D0F81C0105
:1009600040F44070C1F81C010846806940F0010065
:100970008861FFF748FDAD481030006840F0010085
:10098000AA491031086000BDF0B507460C46059D28
:1009900000262A20FFF730FD2012FFF730FDE0B2DD
:1009A000FFF72DFD1119491EC1F30F20FFF727FD99
:1009B0001119491EC8B2FFF722FD2B20FFF71CFDBD
:1009C0001812FFF71CFDD8B2FFF719FDE918491EF0
:1009D000C1F30F20FFF713FDE918491EC8B2FFF756
:1009E0000EFD2C20FFF708FD00BF03E03846FFF79F
:1009F00006FD761C02FB05F0B042F7D8F0BD2DE9EC
:100A0000FF4F04460E46174610254FF0080B202FC7
:100A100001DB7F2F01DDBDE8FF8FA7F12000C7B20A
:100A20002A20FFF7E9FC2012FFF7E9FCE0B2FFF70C
:100A3000E6FC0BEB0401491EC1F30F20FFF7DFFCBE
:100A40000BEB0401491EC8B2FFF7D9FC2B20FFF7BE
:100A5000D3FC3012FFF7D3FCF0B2FFF7D0FCA9199A
:100A6000491EC1F30F20FFF7CAFCA919491EC8B2DD
:100A7000FFF7C5FC2C20FFF7BFFC4FF0000832E069
:100A80004FF0000A26E04FF0000918E06E4800EB36
:100A90000710012101EB4901A1EB0801405C40FA7C
:100AA0000AF000F0010020B131462046039AFFF71A
:100AB00073FE601C84B209F1010000F0FF09D94502
:100AC000E4DBA4F1100084B2701C86B20AF10100CC
:100AD00000F0FF0A05EBD571BAEB610FD3DB08F12B
:100AE000010000F0FF08E91705EB5171B8EBE10FC9
:100AF000C6DB00BF8FE700B500230FE020204B4985
:100B0000143108605148FFF771FC2020474910312B
:100B100008604E48FFF76AFC581CC3B20A2BEDDB95
:100B200004204B49086000BD00B500230FE02020E1
:100B30004249103108604548FFF758FC20203F49E2
:100B40000C3108604148FFF751FC581CC3B20A2B16
:100B5000EDDB01203E49086000BD00B53D488068DE
:100B6000C0F380233C48006868B13B48006809280E
:100B700009D239480078401E03FA00F03749096865
:100B800008433649086034480068401C3249086010
:100B90000A20FFF72BFC4FF400602D49086000BDD0
:100BA000214AD26942F002021F4BDA612C4A1080BE
:100BB000121F11802A4A203A128842F00102284B63
:100BC000203B1A800122264B2C3B1A804523254AC4
:100BD0001370254A126842F000524FF0E023C3F828
:100BE00000217047104AD26942F004020E4BDA61CC
:100BF0001E4A1080121F11801C4A203A128842F0AF
:100C000001021A4B203B1A800122184B2C3B1A8000
:100C10004523144A521C1370134A126842F0804252
:100C20004FF0E02324E0000000100240000C0140DF
:100C30000414014000F0FF00BB0B00BB041801408E
:100C4000002001401C0100A08210000840420F005B
:100C500014040140001001402C0000202800002056
:100C60002C0400401DE400E000E100E02C080040FE
:100C7000C3F8002170472020CC490860704720202D
:100C8000CA49091D0860704700B5FFF7F4FF00BDB1
:100C900000B5FFF7F4FF00BDC548008800F0010073
:100CA00038B1C248001F006880F02000BF49091F0A
:100CB0000860BF48008820F00100BD4908807047E7
:100CC000BC48008800F0010028B1BB48006880F0F3
:100CD0002000B9490860B748008820F00100B549F4
:100CE0000880704700204FF0E0210861B348486158
:100CF000002088610846006940F0030008617047E1
:100D0000AF4A926942F00802AD4B9A61A74A103A85
:100D1000126822F47002A54B103B1A601A46126842
:100D200042F430021A60A64A926942F00102A44BD2
:100D30009A61A44A526822F44062A24B5A601A4651
:100D4000526842F400625A609D4AD26942F002023F
:100D50009B4BDA61964A1C321080121F1180944A14
:100D60000832128842F4E042914B08331A801A4646
:100D7000128842F400621A808D4A1032128842F0C2
:100D800010028B4B10331A808022894B103B1A8043
:100D90001A46128842F001021A807047F8B5002402
:100DA000002500BFB0E00025AAE04FF6FF7604EB77
:100DB0008400854901EBC00050F82500012861D16D
:100DC00004EB8400814901EBC00050F82500401C71
:100DD00018BB4FF478461820009005EB45004FF6FD
:100DE000FF7202EAC00304EB440002EAC0011822C9
:100DF0003046FFF7C9FD05EB4502082303EBC202AD
:100E000091B204EB440203EBC20290B24FF6FF73BF
:100E10004D220096FFF7F3FD71E04FF4FC661820B9
:100E2000009005EB45004FF6FF7202EAC00304EBA9
:100E3000440002EAC00118223046FFF7A5FD04EB8A
:100E40008400624901EBC00050F82500002856DDFF
:100E500004EB84030F4607EBC303009613F8253019
:100E60003033DAB205EB4503082707EBC30399B229
:100E700004EB440307EBC30398B24FF6FF73FFF78D
:100E8000BEFD3CE004EB84004F4901EBC00050F88C
:100E90002500022822D11F261820009005EB4500CE
:100EA0004FF6FF7202EAC00304EB440002EAC001FD
:100EB00018223046FFF768FD05EB4502082303EBD7
:100EC000C20291B204EB440203EBC20290B24FF6AD
:100ED000FF7346220096FFF792FD10E01820009065
:100EE00005EB45004FF6FF7202EAC00304EB440035
:100EF00002EAC00118224FF6FF70FFF745FD6D1C96
:100F00000A2DFFF652AF641C0A2CFFF64CAFF8BD59
:100F100008B5182000902E48006800EB40004FF6FE
:100F2000FF7202EAC0032B48006800EB400002EAAF
:100F3000C00118224FF6E070FFF726FD08BD10B57E
:100F40000020002100BF14E000210FE0002200EB90
:100F500080031E4C04EBC30343F8212000EB800305
:100F6000194C04EBC30343F82120491C0A29EDDB8B
:100F7000401C0A28E8DB10BD08B5FFF7ADFAFFF703
:100F800076FAFFF753FCFFF767FBFFF7D8FF0CE09B
:100F90004FF4A0700023F022194600901846FFF786
:100FA000F3FCFFF7FBFEFFF7B3FFF1E7100C014086
:100FB00010040040100800400C1801408F5F010031
:100FC0000010024000000140C40100203400002055
:100FD0001800002014000020704700BFFEE700BF8B
:100FE000FEE700BFFEE700BFFEE7704770477047AF
:100FF00005480078401C0449087004480078401CEB
:1010000002490870704700001C0000201D000020ED
:10101000704770477047754600F028F8AE460500E7
:101020006946534620F00700854618B020B5FFF703
:10103000CBF9BDE820404FF000064FF000074FF01D
:1010400000084FF0000B21F00701AC46ACE8C009E6
:10105000ACE8C009ACE8C009ACE8C0098D467047EF
:101060000446AFF300802046FFF7A9F80048704718
:101070005403002001491820ABBEFEE72600020001
:1010800070470000000000000000000000000000A9
:1010900000000000000000001FCC000C0000000059
:1010A0000000000008003000600008003000600010
:1010B0000000022003FC1E20022003FC1E20022050
:1010C000000000000E1811043FFF10840C7800008F
:1010D00000000F0010840F3800C0077818840078D3
:1010E000000000780F8410C411240E9800E40084DE
:1010F0000008080068007000000000000000000008
:10110000000000000000000007E018182004400262
:101110000000000040022004181807E00000000052
:1011200000000240024001800FF0018002400240B6
:1011300000000080008000800FF8008000800080A8
:1011400000000001000D000E000000000000000083
:10115000000000000080008000800080008000808F
:1011600000800000000C000C0000000000000000E7
:101170000000000000060018006001800600180052
:101180002000000007F0080810041004080807F009
:1011900000000000080408041FFC00040004000014
:1011A000000000000E0C10141024104411840E0CCA
:1011B000000000000C1810041104110412880C70B7
:1011C0000000000000E00320042408241FFC002489
:1011D000000000001F981084110411041088107082
:1011E0000000000007F0088811041104188800703E
:1011F000000000001C00100010FC13001C00100078
:10120000000000000E3811441084108411440E3880
:10121000000000000700088C10441044088807F004
:101220000000000000000000030C030C00000000A0
:1012300000000000000000010106000000000000A6
:101240000000000000800140022004100808100483
:1012500000000220022002200220022002200220A0
:101260000000000010040808041002200140008063
:10127000000000000E001200100C106C10800F0017
:10128000000003E00C1813E4142417C4082807D046
:1012900000000004003C03C41C40074000E4001CA4
:1012A000000410041FFC1104110411040E880070C6
:1012B000000003E00C1810041004100410081C10A7
:1012C000000010041FFC100410041004080807F0AC
:1012D000000010041FFC1104110417C410040818A6
:1012E000000010041FFC1104110017C010000800BA
:1012F000000003E00C181004100410441C78004097
:10130000000010041FFC10840080008010841FFC6B
:1013100010040000100410041FFC1004100400004E
:10132000000000030001100110011FFE100010005A
:10133000000010041FFC110403801464181C100426
:10134000000010041FFC1004000400040004000C42
:10135000000010041FFC1F0000FC1F001FFC1004F5
:10136000000010041FFC0C04030000E010181FFC18
:10137000100007F00808100410041004080807F013
:10138000000010041FFC10841080108010800F00DB
:10139000000007F0081810241024101C080A07F297
:1013A000000010041FFC1104110011C011300E0CBC
:1013B000000400000E1C11041084108410441C381A
:1013C00000001800100010041FFC1004100018008A
:1013D000000010001FF810040004000410041FF89F
:1013E000100010001E0011E0001C007013801C0093
:1013F00010001FC0103C00E01F0000E0103C1FC0A8
:1014000000001004180C163401C001C01634180C6A
:10141000100410001C00130400FC13041C00100036
:1014200000000804101C1064108413041C0410181D
:1014300000000000000000007FFE40024002400269
:101440000000000030000C0003800060001C00035E
:10145000000000004002400240027FFE0000000049
:10146000000000000000200040004000400020007C
:101470000000000100010001000100010001000165
:1014800000010000400040002000000000000000BB
:10149000000000000098012401440144014400FCC4
:1014A000000410001FFC0088010401040088007083
:1014B000000000000070008801040104010400889D
:1014C00000000000007000880104010411081FFCE6
:1014D0000004000000F8014401440144014400C834
:1014E00000000000010401040FFC110411041100AC
:1014F0001800000000D601290129012901C90106AF
:10150000000010041FFC008401000100010400FC25
:10151000000400000104190419FC00040004000088
:1015200000000000000300010101190119FE000084
:10153000000010041FFC0024004001B4010C010451
:1015400000000000100410041FFC00040004000050
:101550000000010401FC0104010001FC0104010080
:1015600000FC010401FC008401000100010400FCF6
:101570000004000000F8010401040104010400F863
:101580000000010101FF00850104010400880070D2
:10159000000000000070008801040104010501FF43
:1015A00000010104010401FC008401040100018028
:1015B0000000000000CC0124012401240124019832
:1015C000000000000100010007F801040104000010
:1015D0000000010001F8000400040004010801FCFF
:1015E0000004010001800170000C00100160018006
:1015F000010001F0010C003001C00030010C01F0CD
:10160000010000000104018C00740170018C0104D0
:101610000000010101810171000E001801600180CC
:10162000010000000184010C013401440184010C1B
:101630000000000000000000000001003EFC40022D
:1016400040020000000000000000FFFF000000005A
:1016500000000000400240023EFC010000000000CB
:10166000000000006000800080004000400020007A
:101670002000000094160008000000203400000044
:101680006C010008C816000834000020840900001E
:101690008801000800A24A040000000000000000C9
:1016A0000102030406070809000000000000000012
:1016B00000000000000000001027000000000000F3
:0816C000000000000000000022
:0400000508000131BD
:00000001FF
