:020000040800F2
:10000000E00A0020ED030008351A0008371A00083E
:100010003B1A00083F1A0008431A000800000000BD
:10002000000000000000000000000000471A000867
:10003000491A0008000000004B1A00084D1A000879
:100040000704000807040008070400080704000864
:100050000704000807040008F9090008070400085D
:10006000C90900080704000807040008070400087D
:100070000704000807040008070400080704000834
:100080000704000807040008070400080704000824
:100090000704000807040008070400080704000814
:1000A0000704000807040008070400080704000804
:1000B000070400088D0B0008D30B00080704000894
:1000C00007040008070400080704000807040008E4
:1000D00007040008070400080704000807040008D4
:1000E000290A00080704000807040008070400089C
:1000F00007040008070400080704000807040008B4
:1001000007040008070400080704000807040008A3
:100110000704000807040008070400080704000893
:100120000704000807040008070400080704000883
:1001300000F002F800F041F80AA090E8000C8244B8
:100140008344AAF10107DA4501D100F036F8AFF295
:10015000090EBAE80F0013F0010F18BFFB1A43F0A5
:10016000010318474023000060230000103A24BF19
:1001700078C878C1FAD8520724BF30C830C144BF0C
:1001800004680C607047000000230024002500264E
:10019000103A28BF78C1FBD8520728BF30C148BFEA
:1001A0000B607047642901F09D84002070471FB5E3
:1001B00001F085FD1FBD10B510BD01F034FE1146E4
:1001C000FFF7F5FF01F0D2F901F052FE03B4FFF79B
:1001D000F2FF03BC01F058FE0B49D1F800C04A6899
:1001E0005CF8043B1068184442F8040B8C4528BFA7
:1001F000A1F1DC0C8A4228BFA1F1DC02C1F800C0E9
:100200004A6020F000407047780400200CB50020C0
:10021000019000906C48006840F480306A490860A2
:1002200000BF6948006800F4003000900198401C4D
:100230000190009818B90198B0F5A06FF1D162480B
:10024000006800F4003010B10120009001E00020AF
:1002500000900098012843D15C48006840F01000ED
:100260005A4908600846006820F003000860084604
:10027000006840F0020008605348406852494860F6
:100280000846406848600846406840F4806048601E
:100290000846406820F47C1048600846406840F4F6
:1002A000E81048600846006840F08070086000BFB1
:1002B0004548006800F000700028F9D042484068C6
:1002C00020F00300404948600846406840F00200C2
:1002D000486000BF3C48406800F00C000828F9D195
:1002E0000CBD10B5FFF792FF10BD10B53648006881
:1002F00040F001003449086008464068344908402D
:100300003149486008460068324908402E49086073
:100310000846006820F4802008600846406820F401
:10032000FE0048604FF41F008860FFF7DAFF4FF0CF
:1003300000602949086010BD10B50021002000228E
:10034000214B5B6803F00C0121B1042906D0082978
:1003500028D107E0214B224C236027E01F4B204C83
:10036000236023E0184B5B6803F47010164B5B6846
:1003700003F48032022303EB904022B9194B43432C
:10038000174C23600DE0104B5B6803F4003323B17E
:10039000144B4343124C236003E0104B4343104C77
:1003A000236003E00D4B0E4C236000BF00BF064BE3
:1003B0005B68C3F303130C4CE15C094B1B68CB4037
:1003C000074C236010BD00000010024000200240D6
:1003D0000000FFF8FFFFF6FE08ED00E000127A00D3
:1003E0000000002000093D0004000020094880476B
:1003F00009480047FEE7FEE7FEE7FEE7FEE7FEE707
:10040000FEE7FEE7FEE7FEE704480549054A064B1E
:1004100070470000EB02000831010008E0040020F2
:10042000E00A0020E0060020E0060020002100E0B5
:10043000491C8142FCD37047F84908807047F7494E
:10044000891C0880704700B50120FFF7F5FF1120D7
:10045000FFF7F2FF3A20FFF7EFFF5520FFF7EFFF1E
:100460002920FFF7E9FF3620FFF7E6FFC820FFF756
:10047000E6FF00BD00B50120FFF7DEFFE848FFF70B
:10048000D5FF1120FFF7D8FFE548FFF7CFFF3A204F
:10049000FFF7D2FF0520FFF7D2FF2920FFF7CCFF9F
:1004A0003620FFF7C9FF8020FFF7C9FF00BDDD48F8
:1004B000806920F00800DB4988610846806940F0C7
:1004C00008008861D848006820F47000D6490860A8
:1004D0000846006840F4401008602020D2491031DE
:1004E0000860D048806920F04000CE498861084605
:1004F000806940F040008861CC48006820F47000BA
:10050000CA4908600846006840F44010086020208E
:10051000C64910310860704707210020C14A52685F
:10052000C34B1A40BF4B5A601A461268C14B1A405F
:10053000BC4B1A601A46126842F480321A6000BF3F
:10054000B84A1268520C002AFAD04FF41052B54B38
:100550005A601A46526842EA81425A601A46526804
:1005600042F480325A60B44A126842F03202B24B0E
:100570001A60AC4A126842F08072AA4B1A6000BF3F
:10058000A84A1268520E002AFAD0A64A526842F0CF
:100590000202A44B5A6005E0A24A5268C2F38700E7
:1005A00000F003000228F7D17047014601F007026E
:1005B0001202A24B18684FF6FF031840A04B1843D5
:1005C00010439E4B186070479648806940F01000B9
:1005D000944988619B48406820F47040994948607C
:1005E0000846406840F4004048600846C06840F44F
:1005F0000060C8600846406820F4706048600846A3
:10060000406840F4006048608648806940F001001E
:10061000844988618C48006920F470418A480161EE
:10062000006940F40051884801618848006840F43E
:1006300000608649086085480C30006840F400601E
:1006400082490C3108606521814801708148006849
:1006500020F480704FF0E021C1F804010846D0F882
:10066000040140F48070C1F80401704710B50346DE
:100670000C462A20FFF7E0FE1812FFF7E0FED8B282
:10068000FFF7DDFE0120FFF7DAFE3F20FFF7D7FE80
:100690002B20FFF7D1FE2012FFF7D1FEE0B2FFF7CB
:1006A000CEFE0120FFF7CBFEDF20FFF7C8FE2C2097
:1006B000FFF7C2FE1046FFF7C2FE10BD00B5594855
:1006C000406940F48070574948610846806940F0AD
:1006D000080088610846806940F02000886108466B
:1006E000806940F0400088610846806940F480706D
:1006F00088614D48006820F00F004B4908600846AB
:10070000006840F0030008605348006853490840FF
:100710005149086008460068514908434E4908603D
:10072000081F006800F0FF20091F086008460068E5
:1007300040F0BB1008603D48001D006800203B49A8
:10074000091D08600846006840F0BB300860081FBB
:10075000006820F07040091F08600846006840F0FB
:10076000304008603F48406820F470203D494860B0
:100770000846406840F4302048600846006820F091
:100780000F0008600846006840F00B000860002079
:100790004FF020418861C861334908604FF0204024
:1007A000806940F480504FF020418861084680699C
:1007B00040F4804088610846806940F010008861FC
:1007C0000846C069C8610846C06940F00100C861B8
:1007D0000846D0F81C0140F47060C1F81C012248A2
:1007E0000068C1F81C0120480068C1F81C010846D7
:1007F000D0F81C0140F44070C1F81C010846806923
:1008000040F001008861FFF71EFE074810300068C5
:1008100040F0010004491031086000BDFE07006C83
:1008200040420F0000100240000C0140001801403F
:100830000000FFF8FFFFF6FE002002400CED00E094
:100840000000FA05001001400000014000040140D2
:1008500028E400E004E100E00414014000F0FF009F
:10086000BB0B00BB002001401C0100A0F0B50746F7
:100870000C46059D00262A20FFF7DEFD2012FFF71B
:10088000DEFDE0B2FFF7DBFD1119491EC1F30F20B9
:10089000FFF7D5FD1119491EC8B2FFF7D0FD2B2077
:1008A000FFF7CAFD1812FFF7CAFDD8B2FFF7C7FD60
:1008B000E918491EC1F30F20FFF7C1FDE918491ED1
:1008C000C8B2FFF7BCFD2C20FFF7B6FD00BF03E068
:1008D0003846FFF7B4FD761C02FB05F0B042F7D8AE
:1008E000F0BD2DE9F04F04460D4616469A46DDF858
:1008F000249010224FF0080B202E01DB7F2E01DD0B
:10090000BDE8F08FA6F12000C6B22A20FFF794FDC3
:100910002012FFF794FDE0B2FFF791FD0BEB04010D
:10092000491EC1F30F20FFF78AFD0BEB0401491E9E
:10093000C8B2FFF784FD2B20FFF77EFD2812FFF7DA
:100940007EFDE8B2FFF77BFD5119491EC1F30F2070
:10095000FFF775FD5119491EC8B2FFF770FD2C2035
:10096000FFF76AFD002327E04FF000081DE0002795
:1009700015E0FD4800EB0610012101EB4701C91A03
:10098000405C40FA08F000F0010018B15046FFF753
:1009900056FD02E04846FFF752FD781CC7B25F459E
:1009A000E7DB08F1010000F0FF0802EBD271B8EBC1
:1009B000610FDCDB581CC3B2D11702EB5171B3EBF2
:1009C000E10FD1DB00BF9BE700B500230EE0202044
:1009D000E6490860E648FFF729FD2020E349091FA2
:1009E0000860E348FFF722FD581CC3B20A2BEEDB78
:1009F0000420E049086000BD00B500230EE020207F
:100A0000DD490860DA48FFF711FD2020DA49091FA7
:100A10000860D748FFF70AFD581CC3B20A2BEEDB6B
:100A20000120D449086000BD00B5D4488068C0F3F7
:100A30008020D34908800120D2490870D24800683C
:100A400078B1D148006809280BD2CF480078401E01
:100A5000CB49098801FA00F0CC4909680843CB4921
:100A60000860C9480068401CC74908601E20FFF79D
:100A7000DDFC4FF40060BF49086000BDC44AD26984
:100A800042F00202C24BDA61C24A1080121F11808A
:100A9000C04A203A128842F00102BE4B203B1A8025
:100AA0000122BC4B2C3B1A804523BB4A1370BB4A26
:100AB000126842F000524FF0E023C3F80021704763
:100AC00030B593B03822B6A101A801F001F9002495
:100AD000C148C2A1026810A800F0C8FF0CE00020C5
:100AE00010A900900A5DE1000A3188B240F2FF735C
:100AF000F621FFF7F6FE641C10A8005D0028EED179
:100B000000240DE0002001A900900A5DE1000831F9
:100B100088B24FF6FF734FF49671FFF7E2FE641C44
:100B20001C2CEFDB1C240FE0002001A900900A5DC3
:100B3000A4F11C01C900183188B24FF6FF734FF4BD
:100B40008771FFF7CEFE641C342CEDDBA6480068ED
:100B50003C2190FBF1F201FB1205A348A3A102681E
:100B60000FA800F083FF00240CE000200FA90090E4
:100B70000A5DE100C83188B24FF47843F621FFF7EF
:100B8000B0FE641C042CF0DB13B030BD10B58148FE
:100B90001C38008800F00100D0B19648006820B1F0
:100BA00091480068401C904908609348006838B933
:100BB0009048006820B19148006808B9FFF780FFAD
:100BC00074481C38008820F0010072491C390880E4
:100BD00010BD8B48008800F0010038B16648083825
:100BE000006880F020006449083908608448008863
:100BF00020F0010082490880704700204FF0E0217A
:100C0000086180484861002088610846006940F01A
:100C10000300086170475E4A926942F008025C4B2B
:100C20009A61524A143A126822F470024F4B143BF4
:100C30001A601A46126842F430021A60544A9269E5
:100C400042F00102524B9A616F4A526822F44062AC
:100C50006D4B5A601A46526842F400625A604C4A20
:100C6000D26942F002024A4BDA614A4A1080121FEE
:100C70001180484A143A128842F4E042454B143B32
:100C80001A801A46128842F400621A80414A0C3ACD
:100C9000128842F010023F4B0C3B1A8080223D4BE1
:100CA0002C3B1A801A46128842F001021A807047C3
:100CB0002DE9F8474FF000090025F6E005EB450067
:100CC000C7000024EDE04FF6FF7804EB440009EB89
:100CD000C00605EB85004D4901EBC00050F824002B
:100CE000012840D105EB8500494901EBC00050F8CF
:100CF0002400401CB0B94FF478481620B3B2B9B202
:100D0000024600904046FFF7B1FD321D91B207F157
:100D1000080290B24FF6FF734D22CDF80080FFF726
:100D2000E0FDBDE04FF448781620B3B2B9B20246F8
:100D300000904046FFF79AFD05EB8500344901EB32
:100D4000C00050F82400002866DD05EB850C8A46BB
:100D50000AEBCC0CCDF800805CF824C0ACF1010C9F
:100D6000DFF8B0A059E072E0A21E0008140C0140A8
:100D700040420F00140401401418014000100140CB
:100D80005E0000205D00002058000020540000207C
:100D9000001002402C0400401DE400E000E100E0EF
:100DA000323A646F776E20343A6C65667420363A56
:100DB000726967687420383A646F776E2B3A666C94
:100DC0006167202D3A756E666C616720353A7265F1
:100DD0007665616C0000000024000020466C6167AD
:100DE000733A20253032640020000020253034641E
:100DF0000000000064000020600000206800002067
:100E0000100800408F5F0100000001400C0200202C
:100E10007C0000202C00002042E03AF82CC01FFA91
:100E20008CF305EB850C8A460AEBCC0C1CF824C02D
:100E30000CF1300C0CF0FF0206F1040C1FFA8CF1DF
:100E400007F1080C1FFA8CF0FFF74BFD28E005EBCB
:100E50008500FE4901EBC00050F82400022816D19D
:100E60004FF01F081620B3B2B9B2024600904046B8
:100E7000FFF7FCFC321D91B207F1080290B24FF669
:100E8000FF734622CDF80080FFF72BFD08E0162007
:100E9000B3B2B9B2024600904FF6FF70FFF7E6FC1E
:100EA000641C0A2CFFF60FAF6D1C0A2DFFF606AF6F
:100EB000BDE8F8872DE9F8434FF6E078E44800688C
:100EC00000280BDBE24800680A2807DAE1480068DE
:100ED000002803DBDF4800680A2801DBBDE8F8834F
:100EE000DD480068002845DBDB4800680A2841DA55
:100EF000DA4800680028F6DBD84800680A28F6DAE5
:100F0000D548006800EB4000C400D448006800EBFE
:100F10004000C500D048006800EB8000CB4901EBE1
:100F2000C000CE49096850F82100012874D1CA4890
:100F3000006800EB8000CA4901EBC000C74909689E
:100F400050F82100401CB0B91620ABB2A1B2024645
:100F500000904FF47840FFF789FC4FF478402A1D49
:100F600091B204F10802009090B24FF6FF734D2247
:100F7000FFF7B7FC7BE01620ABB2A1B202460090AF
:100F80004FF44870FFF772FCB348006800EB800034
:100F9000B34901EBC000B149096850F821000028AD
:100FA00065DD4FF44870DFF8B0C20090DCF800C097
:100FB0000CEB8C0CDFF8A89209EBCC0CDFF89C92C0
:100FC000D9F800905CF829C0ACF1010CDFF89492DC
:100FD00039F82CC01FFA8CF3DFF87CC2DCF800C0B3
:100FE0000CEB8C0CDFF8789209EBCC0CDFF86C92F0
:100FF000D9F800901CF829C00CF1300C0CF0FF025D
:1010000005F1040C1FFA8CF104F1080C1FFA8CF0A6
:10101000FFF767FC2BE0FFE78F48006800EB8000DC
:101020008A4901EBC0008D49096850F82100022867
:1010300014D11620ABB2A1B2024600901F20FFF7D8
:1010400015FC1F202A1D91B204F10802009090B2F5
:101050004FF6FF734622FFF744FC08E01620ABB2C0
:10106000A1B2024600904FF6FF70FFF7FFFB7848F1
:10107000006800EB4000C6007648006800EB4000C6
:10108000C7007348006800EB8000704901EBC000A6
:101090007049096850F82100012802D14FF6807884
:1010A0000EE06B48006800EB8000684901EBC0006F
:1010B0006849096850F82100022801D14FF47F489F
:1010C0001620BBB2B1B2024600904046FFF7CEFBFD
:1010D0005F480068604908605E4800685F490860D2
:1010E00000BFFBE65A4A12680244594B1A60594A3B
:1010F00012680A44574B1A60554A1268002A02DAED
:101100000022534B1A60524A12680A2A02DB092253
:101110004F4B1A604F4A1268002A02DA00224D4BE8
:101120001A604C4A12680A2A02DB0922494B1A60EB
:10113000704770B5002620E0FFF74EF80A2190FBBB
:10114000F1F201FB1204FFF747F80A2190FBF1F2DC
:1011500001FB120504EB8400414901EBC00050F88B
:101160002500401C48B14FF0FF3004EB84013C4A9D
:1011700002EBC10141F82500761C622EDCDB70BD5C
:10118000F0B500203AE0002135E000EB8007DFF801
:10119000D0C00CEBC70757F821707F1C07B929E0B6
:1011A0000026741E1BE04FF0FF3515E002194B19A5
:1011B000002A10DB0A2A0EDA002B0CDB0A2B0ADAD3
:1011C00002EB8207DFF898C00CEBC70757F82370D3
:1011D0007F1C07B9761C6D1C012DE7DD641C012CFA
:1011E000E1DD00EB8007DFF878C00CEBC70747F8BC
:1011F000216000BF491C0A29C7DB401C0A28C2DB4A
:10120000F0BD30B5002434E000251EE004EB84007E
:10121000134901EBC00050F82500401CA0B904EBB5
:1012200084000A4901EBC00050F8250060B9012094
:1012300004EB8401054A02EBC10141F82500FFF7E8
:1012400037FD0948FFF7F2F86D1C0FE00C02002093
:1012500014000020180000206C0000207000002006
:101260007C0000202C00002020A107000A2DCDDBEF
:10127000641C0A2CC8DB012030BD2DE9F04FADF510
:10128000497D05460E46002401A840F8345000EB85
:10129000C4004660641CA6E0641E01A850F83450E7
:1012A00000EBC400466805EB8500F74901EBC00080
:1012B00050F8260000B196E022E04FF0000918E057
:1012C0004FF0000A10E0002009EB8901EF4A02EB21
:1012D000C10141F82A0009EB8901EB4A02EBC10187
:1012E00041F82A000AF1010ABAF10A0FEBDB09F111
:1012F0000109B9F10A0FE3DBFFF71BFFFFF740FF1E
:1013000005EB8500E14901EBC00050F82600401CC8
:1013100018B9DF4800686428CFD0012005EB8501AB
:10132000D94A02EBC10141F82600D9480068401EA5
:10133000D749086005EB8500D44901EBC00050F89F
:101340002600401C40B9FFF75CFF0120D14908602E
:101350000DF5497DBDE8F08FCD480068622806D1C3
:101360000120CD490860CD48FFF760F8F0E705EBB4
:101370008500C64901EBC00050F8260080BB4FF045
:10138000FF3B2AE04FF0FF30009021E005EB0B0718
:10139000009806EB0008002F17DB0A2F15DAB8F1CA
:1013A000000F12DBB8F10A0F0FDA07EB8700B6491E
:1013B00001EBC00050F8280038B901A840F834709B
:1013C00000EBC400C0F80480641C0098401C00902E
:1013D00000980128DADD0BF1010BBBF1010FD1DD23
:1013E000FFF766FC00BF002C3FF756AF00BFAFE72A
:1013F00010B50446F02C03D10120A949087010BD96
:10140000A748007818B10020A5490870F7E7742CA8
:101410001ED006DC6B2C16D0722C0ED0732C6DD126
:101420001BE0752C04D0792C1ED07B2C66D141E0BA
:1014300001210020FFF756FE62E04FF0FF3100204F
:10144000FFF750FE5CE00021481EFFF74BFE57E01F
:1014500000210120FFF746FE52E0924801689248C1
:101460000068FFF70AFF4BE08F48006800EB800040
:10147000854901EBC0008B49096850F8210010B97B
:101480008A48006800B93BE002208749096801EBFF
:1014900081017D4A02EBC101824A126841F82200B3
:1014A00082480068401E81490860FFF709FBFFF78A
:1014B000FFFB25E07C48006800EB8000724901EBEF
:1014C000C0007849096850F82100022800D017E0D0
:1014D00000207549096801EB81016B4A02EBC101EB
:1014E000704A126841F8220070480068401C6F4939
:1014F0000860FFF7E5FAFFF7DBFB01E0002400BF1F
:1015000000BF0A20FEF792FF00BF78E770B500BF6A
:1015100000254FF0E02189694FF47A7201FB02F057
:1015200000F0B8FB622061490860642058490860F7
:10153000002414E000250FE0002004EB8401534A4E
:1015400002EBC10141F8250004EB84014E4A02EB95
:10155000C10141F825006D1C0A2DEDDB641C0A2C2D
:10156000E8DBFFF7E6FDFFF70BFE70BD8EB000264F
:1015700003274F4800684FF47A72B0FBF2F1B1F1E3
:10158000807F00D322E021F07F40401E4FF0E02218
:10159000506150170F2200280ADA13074FEA136828
:1015A000444B00F00F0CACF1040C03F80C8005E088
:1015B00013074FEA136C404B03F800C000BF002034
:1015C0004FF0E02290610720106100BFFEF7A4FFFA
:1015D000FEF76DFFFFF772F83848FEF727FFFEF7BA
:1015E000F3FF4FF4E15142F21070FFF747FA34A1D4
:1015F00009A800F03BFA38A104A800F037FA3BA193
:1016000001A800F033FAFFF781FF4FF4A070002328
:10161000F022194600901846FFF728F900241AE036
:101620000B2C0BDA002001A900900A5DE1004E317D
:1016300088B24FF47843C821FFF753F9002004A97A
:1016400000900A5DE100303188B24FF478436421A4
:10165000FFF747F9641C122CE2DB00BF2648007834
:101660000028FBD00120254908604FF4A07000231A
:10167000F022194600901846FFF7F8F8FFF718FB1C
:10168000FFF718FCBFE100000C0200207C000020E6
:10169000280000206000002068000020C0C62D0047
:1016A00078000020180000201400002024000020F2
:1016B0000000002018ED00E000E400E020A1070099
:1016C000505245535320414E5920544F20524553B8
:1016D0005441525400000000505245535320414E93
:1016E0005920544F20535441525400004D696E65A7
:1016F00073776565706572005D00002064000020EE
:10170000C1480578062F7DD2DFE807F01A2CCBFE02
:1017100003520020BD490860FFF7F8FE4FF4A070A7
:101720000023F022194600901846FFF79FF8FFF7B4
:10173000BFFAFFF7BFFB0020B5490860032761E14E
:10174000B448007868B1B44800680A2805D9012077
:10175000B24908700020B04908600020AD49087007
:1017600003274FE1642095FBF0F100FB1150A8B96D
:10177000A6B9AA48007878B1A9480068FFF738FEF2
:101780000020A6490870A6490860FFF793FB4FF4B4
:101790007A70FEF74BFE0327012608E0642095FBD4
:1017A000F0F100FB115010B1012E00D1002629E10B
:1017B0004FF4A0700023F022194600901846FFF75E
:1017C00055F8002040F2FF734322962100904B20F1
:1017D000FFF787F8002040F2FF734F229621009018
:1017E0005520FFF77EF8002040F2FF734E2296212D
:1017F00000905F20FFF775F8002040F2FF7347224A
:10180000962100E0FCE000906920FFF76AF80020D4
:1018100040F2FF735222962100907320FFF761F887
:10182000002040F2FF734122962100907D20FFF7B7
:1018300058F8002040F2FF73542296210090872030
:10184000FFF74FF8002040F2FF73532296210090DB
:101850009120FFF746F8002040F2FF7321229621E5
:1018600000909B20FFF73DF800240CE0002009A920
:1018700000900A5DE100283188B240F2FF736421D4
:10188000FFF72FF8641C142CF0DB07E061480078A8
:1018900020B1042700206349086000E0F6E700BF9C
:1018A000B0E04FF4A0700023F022194600901846D3
:1018B000FEF7DCFF00204FF478434722962100908A
:1018C0003520FFF70EF85848FEF7B0FD00204FF422
:1018D00078434122962100904520FFF702F85248B4
:1018E000FEF7A4FD00204FF478434D22962100908E
:1018F0005520FEF7F6FF4C48FEF798FD00204FF408
:1019000078434522962100E05DE000906520FEF7D7
:10191000E8FF4548FEF78AFD00204FF478434F2248
:10192000962100908920FEF7DCFF3F48FEF77EFD00
:1019300000204FF478435622962100909920FEF71C
:10194000D0FF3948FEF772FD00204FF4784345225E
:1019500096210090A920FEF7C4FF3348FEF766FDEC
:1019600000204FF47843522296210090B920FEF7D0
:10197000B8FF2D48FEF75AFD00240CE0002009A90D
:1019800000900A5DE100283188B24FF47843642169
:10199000FEF7A7FF641C142CF0DB2448006880F0DD
:1019A0002000224908600BE01A48007840B1042763
:1019B00020201E49091D086000201D49086000E024
:1019C000F2E700BF1EE01348007808B1002716E0D8
:1019D0001248007808B1012711E01548006808B1E5
:1019E00002270CE00A48006808B1042707E00D4808
:1019F000006808B1052702E00A20FEF717FD01E0A4
:101A0000032700BF00BF7BE61C0000202000002051
:101A1000740000205D000020580000205C000020C1
:101A2000540000206800002040420F000C0C0140D0
:101A300060000020704700BFFEE700BFFEE700BF68
:101A4000FEE700BFFEE77047704770470548007823
:101A5000401C0449087004480078401C0249087082
:101A6000704700001C0000201D0000200FB41CB5B2
:101A7000074B06AA7B4469460090059800F0BBF925
:101A80000020694600F0CAF91CBC5DF814FB000098
:101A9000A503000070B5044685690068C10601D53C
:101AA000302600E02026C00707D070BDD4E9012110
:101AB00030469047206A401C20626D1EF6D570BDEE
:101AC00070B5044685690078C00707D170BDD4E9B8
:101AD000012120209047206A401C20626D1EF6D50F
:101AE00070BD00002DE9F0410646002410687529FC
:101AF000314616A510D0AFF30080002802DA40422C
:101B000013A507E031688A0701D512A502E049074D
:101B100004D511A5012401E0AFF3008000210A22C1
:101B200006F1240709E0B0FBF2FCB0FBF2F302FB84
:101B30001C00303078541846491C0028F3D1234645
:101B40002A463046BDE8F04100F0F7B8000000003A
:101B50002D0000002B000000200000002DE9F05FA8
:101B6000894604464FF0000ADFF824B1FB44C0F870
:101B700020A02046E168884700287DD0252806D08F
:101B8000D4E901219047206A401C2062F1E700253A
:101B90005F462046E16888472028064607DB312E4D
:101BA00005D2B81910F8200C08B10543F1E7A807D1
:101BB00001D525F00405C4F81CA00027C4F818A01E
:101BC0002A2E09D0304600F065F938B304EB8708B7
:101BD000303EC8F8186019E059F8041B204604EBA1
:101BE00087029161E1688847012F064618D1E069B4
:101BF000002820DA25F020051DE0D8F8180000EBB9
:101C0000800006EB40003038C8F818002046E16834
:101C10008847064600F03EF90028EED1012F0AD091
:101C20002E2E08D12046E16888477F1C0646022FE9
:101C300045F02005C4DBA069002803DA404245F0E6
:101C40000105A061E80701D025F01005A6B1A6F1B5
:101C50004100192802D8203645F400654A4631462D
:101C6000204625604D46FEF79DFA60B1012807D059
:101C7000ED1D25F0070000E007E000F1080978E716
:101C800005F1040975E730467AE7206ABDE8F09F60
:101C9000220900000B4910B5A1F17C020A4CC2E9EF
:101CA0003712372106E000EB104342F82130074B92
:101CB00000FB03400B1EA1F10101F4DC10BD01206B
:101CC000E8E7000018040020E119D666CD0D0100F8
:101CD00010B5203AC0F00B80B1E81850203AA0E8C7
:101CE0001850B1E81850A0E81850BFF4F5AF5FEAFB
:101CF000027C24BFB1E81850A0E8185044BF18C9AE
:101D000018C0BDE810405FEA827C24BF51F8043B54
:101D100040F8043B08BF7047D20728BF31F8023BA8
:101D200048BF11F8012B28BF20F8023B48BF00F83C
:101D3000012B70477047704770472DE9F0470D46FB
:101D400099469246044600F124080168880604D5A5
:101D5000E06921F01001216000E00120A84201DDCE
:101D6000471B00E00027A1697A1902EB0900081A55
:101D7000A0612078C00602D42046FFF78BFE002623
:101D800008E0D4E901211AF806009047206A401CB7
:101D9000761C20624E45F4DB2078C0060AD520462A
:101DA000FFF778FE06E0D4E9012130209047206A51
:101DB000401C2062381EA7F10107F4DC07E0D4E9DB
:101DC000012118F805009047206A401C2062281E57
:101DD000A5F10105F3DC2046FFF772FE207800062E
:101DE00002D50220BDE8F0870120FBE701694A1C0B
:101DF00002610878704700B58FB0CDE9013100214C
:101E0000059105497944CDE9031011466846FFF76D
:101E1000A5FE0FB000BD0000E5FFFFFF0A6802F855
:101E2000010B0A607047754600F028F8AE460500C1
:101E30006946534620F00700854618B020B5FEF7E6
:101E4000E3FABDE820404FF000064FF000074FF0E6
:101E500000084FF0000B21F00701AC46ACE8C009C8
:101E6000ACE8C009ACE8C009ACE8C0098D467047D1
:101E70000446AFF300802046FEF7A8F900487047FB
:101E8000800400207047000001491820ABBEFEE727
:101E90002600020030380A2801D2012070470020B5
:101EA000704700000000000000000000000000007B
:101EB00000000000000000001FCC000C000000002B
:101EC00000000000080030006000080030006000E2
:101ED0000000022003FC1E20022003FC1E20022022
:101EE000000000000E1811043FFF10840C78000061
:101EF00000000F0010840F3800C0077818840078A5
:101F0000000000780F8410C411240E9800E40084AF
:101F100000080800680070000000000000000000D9
:101F2000000000000000000007E018182004400234
:101F30000000000040022004181807E00000000024
:101F400000000240024001800FF001800240024088
:101F500000000080008000800FF80080008000807A
:101F600000000001000D000E000000000000000055
:101F70000000000000800080008000800080008061
:101F800000800000000C000C0000000000000000B9
:101F90000000000000060018006001800600180024
:101FA0002000000007F0080810041004080807F0DB
:101FB00000000000080408041FFC000400040000E6
:101FC000000000000E0C10141024104411840E0C9C
:101FD000000000000C1810041104110412880C7089
:101FE0000000000000E00320042408241FFC00245B
:101FF000000000001F981084110411041088107054
:102000000000000007F0088811041104188800700F
:10201000000000001C00100010FC13001C00100049
:10202000000000000E3811441084108411440E3852
:10203000000000000700088C10441044088807F0D6
:102040000000000000000000030C030C0000000072
:102050000000000000000001010600000000000078
:102060000000000000800140022004100808100455
:102070000000022002200220022002200220022072
:102080000000000010040808041002200140008035
:10209000000000000E001200100C106C10800F00E9
:1020A000000003E00C1813E4142417C4082807D018
:1020B00000000004003C03C41C40074000E4001C76
:1020C000000410041FFC1104110411040E88007098
:1020D000000003E00C1810041004100410081C1079
:1020E000000010041FFC100410041004080807F07E
:1020F000000010041FFC1104110417C41004081878
:10210000000010041FFC1104110017C0100008008B
:10211000000003E00C181004100410441C78004068
:10212000000010041FFC10840080008010841FFC3D
:1021300010040000100410041FFC10041004000020
:10214000000000030001100110011FFE100010002C
:10215000000010041FFC110403801464181C1004F8
:10216000000010041FFC1004000400040004000C14
:10217000000010041FFC1F0000FC1F001FFC1004C7
:10218000000010041FFC0C04030000E010181FFCEA
:10219000100007F00808100410041004080807F0E5
:1021A000000010041FFC10841080108010800F00AD
:1021B000000007F0081810241024101C080A07F269
:1021C000000010041FFC1104110011C011300E0C8E
:1021D000000400000E1C11041084108410441C38EC
:1021E00000001800100010041FFC1004100018005C
:1021F000000010001FF810040004000410041FF871
:10220000100010001E0011E0001C007013801C0064
:1022100010001FC0103C00E01F0000E0103C1FC079
:1022200000001004180C163401C001C01634180C3C
:10223000100410001C00130400FC13041C00100008
:1022400000000804101C1064108413041C041018EF
:1022500000000000000000007FFE4002400240023B
:102260000000000030000C0003800060001C000330
:10227000000000004002400240027FFE000000001B
:10228000000000000000200040004000400020004E
:102290000000000100010001000100010001000137
:1022A000000100004000400020000000000000008D
:1022B000000000000098012401440144014400FC96
:1022C000000410001FFC0088010401040088007055
:1022D000000000000070008801040104010400886F
:1022E00000000000007000880104010411081FFCB8
:1022F0000004000000F8014401440144014400C806
:1023000000000000010401040FFC1104110411007D
:102310001800000000D601290129012901C9010680
:10232000000010041FFC008401000100010400FCF7
:10233000000400000104190419FC0004000400005A
:1023400000000000000300010101190119FE000056
:10235000000010041FFC0024004001B4010C010423
:1023600000000000100410041FFC00040004000022
:102370000000010401FC0104010001FC0104010052
:1023800000FC010401FC008401000100010400FCC8
:102390000004000000F8010401040104010400F835
:1023A0000000010101FF00850104010400880070A4
:1023B000000000000070008801040104010501FF15
:1023C00000010104010401FC0084010401000180FA
:1023D0000000000000CC0124012401240124019804
:1023E000000000000100010007F8010401040000E2
:1023F0000000010001F8000400040004010801FCD1
:102400000004010001800170000C001001600180D7
:10241000010001F0010C003001C00030010C01F09E
:10242000010000000104018C00740170018C0104A2
:102430000000010101810171000E0018016001809E
:10244000010000000184010C013401440184010CED
:102450000000000000000000000001003EFC4002FF
:1024600040020000000000000000FFFF000000002C
:1024700000000000400240023EFC0100000000009D
:10248000000000006000800080004000400020004C
:10249000200004000008000000000000000200010D
:1024A00000001000C4240008000000207C00000090
:1024B0006C010008402500087C000020640A000030
:1024C0008801000800A24A0400000000000000008B
:1024D00001020304060708090000000000000000D4
:1024E0000000000000000000620000006400000026
:1024F000FF070000E0FF000000F800001FF80000E8
:10250000E0FF0000E007000000000000FFFF000007
:102510000000000010270000000000000000000084
:1025200000000000000000000000000000000000AB
:10253000000000000000000000000000000000009B
:0400000508000131BD
:00000001FF
